{
  "contractName": "MMTBatch",
  "abi": [
    {
      "constant": false,
      "inputs": [
        {
          "name": "_tokenAddress",
          "type": "address"
        },
        {
          "name": "_receivers",
          "type": "address[]"
        },
        {
          "name": "_values",
          "type": "uint256[]"
        }
      ],
      "name": "batchTransfer",
      "outputs": [],
      "payable": false,
      "stateMutability": "nonpayable",
      "type": "function"
    }
  ],
  "bytecode": "0x608060405234801561001057600080fd5b50610300806100206000396000f300608060405260043610610041576000357c0100000000000000000000000000000000000000000000000000000000900463ffffffff1680631239ec8c14610046575b600080fd5b34801561005257600080fd5b5061010d600480360381019080803573ffffffffffffffffffffffffffffffffffffffff169060200190929190803590602001908201803590602001908080602002602001604051908101604052809392919081815260200183836020028082843782019150505050505091929192908035906020019082018035906020019080806020026020016040519081016040528093929190818152602001838360200280828437820191505050505050919291929050505061010f565b005b6000808251845114801561012557506001845110155b151561013057600080fd5b60405180807f7472616e7366657246726f6d28616464726573732c616464726573732c75696e81526020017f7432353629000000000000000000000000000000000000000000000000000000815250602501905060405180910390209150600090505b83518110156102cd578473ffffffffffffffffffffffffffffffffffffffff16827c010000000000000000000000000000000000000000000000000000000090043386848151811015156101e357fe5b9060200190602002015186858151811015156101fb57fe5b906020019060200201516040518463ffffffff167c0100000000000000000000000000000000000000000000000000000000028152600401808473ffffffffffffffffffffffffffffffffffffffff1673ffffffffffffffffffffffffffffffffffffffff1681526020018373ffffffffffffffffffffffffffffffffffffffff1673ffffffffffffffffffffffffffffffffffffffff16815260200182815260200193505050506000604051808303816000875af19250505015156102c057600080fd5b8080600101915050610193565b50505050505600a165627a7a72305820dfa05e64038c898d72bb589786c434573a89770a2de320a371b1b637af34f1800029",
  "source": "pragma solidity ^0.4.16;\n\ncontract MMTBatch {\n    \n    function batchTransfer(address _tokenAddress, address[] _receivers, uint256[] _values) {\n        \n        require(_receivers.length == _values.length && _receivers.length >= 1);\n        bytes4 methodId = bytes4(keccak256(\"transferFrom(address,address,uint256)\"));\n        for(uint256 i = 0 ; i < _receivers.length; i++){\n            if(!_tokenAddress.call(methodId, msg.sender, _receivers[i], _values[i])) {\n                revert();\n            }\n        }\n    }\n}",
  "sourcePath": "/Users/yves/nodeworkspace/truffle_base/contracts/MMTBatch.sol",
  "compiler": {
    "name": "solc",
    "version": "0.4.24+commit.e67f0147.Emscripten.clang"
  },
  "schemaVersion": "2.0.1",
  "updatedAt": "2018-08-15T01:59:31.928Z"
}